:100000003FC000006EC000006CC00000F9C20000DC
:10001000F4C20000EFC2000064C0000062C0000033
:1000200060C000005EC000005CC000005AC000005C
:1000300058C0000056C0000054C00000ACC2000010
:1000400050C000004EC000004CC000004AC000007C
:1000500048C0000046C0000044C0000042C000008C
:1000600040C000003EC000003CC0000019C30000BA
:1000700011C300001BC3000034C000005B04050670
:1000800011241FBECFEFCDBFDFE3DEBF8091400064
:1000900080934000811105C098ED21E094BF20932A
:1000A00041008CBB18E3A0E0B8E3E0E4FDE002C04F
:1000B00005900D92A630B107D9F729E3A6E0B8E381
:1000C00001C01D92A432B207E1F710E0CFE3D0E007
:1000D00003C02197FE01BFD5CE33D107D1F75CD441
:1000E000CFC58ECF9FB7F89488E08093840A809123
:1000F0008E0A81FFFCCF80918D0AE091A20AF091D7
:10010000A30A20916E3830916F3840917038509129
:1001100071389FBF80FF07C0E730F10520F42F5FE3
:100120003F4F4F4F5F4FBF0176956795CF01860FC9
:10013000911DE62FE695E695762F72957F70E71B69
:10014000FF0B67FD3196E80FF91FA0E3B3E079D507
:100150006E0F7F1F811D911D0895E0916C38F09105
:100160006D38309709F44DC0A285B3858185928D95
:1001700091FF04C09C91892329F408959C918923BF
:1001800009F03FC0A785B0899C918189809589231A
:100190008C93828993890197F1F764897589A28587
:1001A000B385518538E020E0CB010197F1F7822F2C
:1001B00090E095958795282F4C91452309F020686C
:1001C000315091F7828D81FD209580916B3890E0C0
:1001D00001968F73992730916A38381799F0A0915A
:1001E0006B38B0E0A65DB74C2C9380936B38868952
:1001F00097890197F1F7A785B0898C919189892B0F
:100200008C930895828D8160828FF1CFAF92BF92DF
:10021000CF92DF92EF92FF920F931F93CF93DF93D2
:100220006C017B018B01040F151FEB015E01AE1801
:10023000BF08C017D10759F06991D601ED91FC9123
:100240000190F081E02DC6010995892B79F7C50150
:10025000DF91CF911F910F91FF90EF90DF90CF90A2
:10026000BF90AF900895FC0157854089252F30E05D
:10027000842F90E0821B930B541710F0CF960895B3
:1002800001970895FC0195858685981761F0A685EC
:10029000AE0FBF2FB11D51968C9196859F5F9F73B6
:1002A000968790E008958FEF9FEF0895FC01958564
:1002B0008685981731F08685E80FF11D818990E0D9
:1002C00008958FEF9FEF0895FC0195852685892F6E
:1002D00090E0805C9F4F821B91098F73992708954E
:1002E000DC010FB607FE04C0809111018823B1F034
:1002F0001896ED91FC911997848185FF0FC01F9688
:100300009C911F9750968C91981304C085818F7D86
:1003100085830895E8E7F8E3E894D5C108950F933D
:100320001F93CF93DF93EC018C8581608C879F8531
:10033000888998130BC0E885F985848185FF06C0FC
:100340008C8581FD0DC080E4848312C0062F1F853B
:100350001F5F1F738889811315C0CE01C1DFFACFDB
:1003600085818F77806490E49483E885F98585831F
:10037000E885F985628381E090E0DF91CF911F915C
:100380000F910895EF85EC0FFD2FF11DEF5AFF4FF0
:1003900000831F878C85E885F98581FF09C08581E9
:1003A0008F77806690E49483E885F9858583E3CF31
:1003B00085818062FBCFCF93DF93EC018C8588230E
:1003C00059F0E885F985858185FD03C0848186FD26
:1003D00003C0CE0185DFF5CFDF91CF910895209145
:1003E0006C3830916D382817390771F490916A385C
:1003F00080916B38981741F0E0916A38F0E0E65D43
:10040000F74C808190E008958FEF9FEF0895089555
:10041000EF92FF920F931F93CF93DF93DC015896D7
:10042000ED90FC905997E114F10479F481E090E0AB
:1004300012968D939C93139790E080E0DF91CF917B
:100440001F910F91FF90EF9008951D96ED91FC91F3
:100450001E971C968C911C97982F90950FB75A96C3
:100460002C915A97122F127021FD6095F8942081DB
:10047000112319F1282B2083E7012197F1F728E0B8
:10048000462F50E0308160FF1AC0382B3083E701DF
:100490002197F1F7BA0175956795215089F71123D6
:1004A00081F08081892380830FBF58968D919C9124
:1004B0000197F1F781E090E0C1CF2923DCCF392308
:1004C000E5CF9081892BEFCF20916C3830916D383A
:1004D0002817390741F480916B3890916A38891B4D
:1004E0008F7390E0089590E080E0089520916C383B
:1004F00030916D3828173907A1F490916A388091AE
:100500006B38981771F0E0916A38F0E0E65DF74CCF
:10051000808190916A389F5F9F7390936A3890E0D2
:1005200008958FEF9FEF089590E080E00895823165
:10053000F0F490E0FC01E851F34720812F3FB9F03F
:10054000FC01EA52F347E08130E2E39FF00111241D
:10055000FC5F60FF0DC021838E549347DC018C91BA
:10056000E80FF11D808961FF05C08860808B0895C8
:100570002283F2CF877FFACFFB0101900020E9F7B9
:100580003197AF01461B570BDC01ED91FC910280C6
:10059000F381E02D09948F9381E080938D0A8FB7CA
:1005A0008F93EF93FF93EEE6F8E39F9368948FEFBA
:1005B0000DC0E89484819581805D9C4F84839583F0
:1005C000885E934080F0848395838FEF9081981BA1
:1005D000919390819F4F919390819F4F91939081A0
:1005E0009F4F919336F39F91FF91EF918F918FBF22
:1005F0008F9118950F9304E006C00F9302E003C09B
:100600000F9300E000C00F920FB60F921F921124BB
:10061000FF921F932F933F934F935F936F937F931B
:100620008F939F93AF93BF93CF93DF93EF93FF93FA
:10063000A0E0B8E3A00FB11DCD91DC91000F0D5FDC
:10064000A02FB0E0FC90109761F01F2D169518F0C8
:1006500041F02296FBCFE991F9913097B9F30995D2
:10066000F5CFA02FB0E0FC92FF91EF91DF91CF91F9
:10067000BF91AF919F918F917F916F915F914F91BA
:100680003F912F911F91FF901F900F900FBE0F90E1
:100690000F911895EF93FF93F898E8E7F8E30BC0F4
:1006A000EF93FF93F898E8E7F8E333C0EF93FF93F5
:1006B000E8E7F8E35BC02F932FB72F938F939F93B7
:1006C000AF93BF936894CF93DF9320E0C085D8E0C9
:1006D0009089DF01A90FB21FAF5ABF4F8C9120E460
:1006E0002C838A839F5F9F738D812785291302C086
:1006F0008F7D8D83908BDF91CF910EF00FCEBF91C8
:10070000AF919F918F912F912FBF2F91FF91EF91DB
:1007100018952F932FB72F933F938F939F93CF933A
:10072000DF93C085D8E0898198818674880F3485ED
:10073000382B82FD0DC0C58581E08C0F8F73268517
:10074000281791F0CE0FDF2F20E0D21F998B8587DD
:100750003487DF91CF919F918F913F912F912FBF40
:100760002F91FF91EF9118953064F2CF8F938FB74F
:100770008F939F93CF93DF93C085D8E09D8188812D
:100780008C8187FDFCCF9F7B90689D83DF91CF910B
:100790009F918F918FBF8F91FF91EF911895CF937C
:1007A000DF93282F30E0E901C851D34788818F3F7C
:1007B00009F43FC0A9014A525347DA01EC91B0E273
:1007C000EB9FF0011124FC5F611136C0868390819C
:1007D0008923A1F4C9018E549347DC019C91309781
:1007E00069F1983058F57096E90FF11D9FB7F894AC
:1007F0008081611126C0877F80839FBF2056334749
:10080000F90190819923A9F08881903409F19038F9
:10081000E1F0903171F4DA019C919130A1F48530CE
:1008200010F0880F82959091010A8095892380931A
:10083000010ADF91CF9108958583C9CFF0E0E0E010
:10084000D5CF8860D9CF880FEECF1092A006F1CF18
:1008500020E4823009F420E89091920A922349F32F
:100860006FB7F8949091800A9E7F9093800A409190
:10087000920A30E02095309550E02423352398EDFE
:1008800094BF2093920A90918E0A90FFFCCF909192
:10089000800A91609093800A813039F480915004ED
:1008A0008F77809350046FBFC4CF809151048F77AE
:1008B00080935104F8CF10927A3810927B3888EEEA
:1008C00093E0A0E0B0E080937C3890937D38A093D3
:1008D0007E38B0937F3828EC3CE82093783830930A
:1008E000793820E038E020938038309381381092B6
:1008F00082381092833810920B3910920C39809301
:100900000D3990930E39A0930F39B09310398EEFB3
:100910009CE88093093990930A3910921B39109200
:100920001C3910921D3910921E3910921F391092E5
:1009300020391092213910922239609123396E7F2B
:100940006D7F609323396695617081E068278FE041
:1009500026DF61E08FE0EBDD84E08093153984E0F1
:1009600094E0809316399093173960E08EE0DFDDD4
:100970008091233981FD03C061E08EE010DF8EE0BD
:100980008093113982E08093123988E094E080935B
:10099000133990931439089588ED90E084BF9093B3
:1009A0006100E0E0F6E083E582838DE0858380E20C
:1009B000838381E08083109202028093030A9EEF7A
:1009C0009093260A9093270A9BE09093000AE0E810
:1009D000FAE02DEF31E026A737A7118290E8928345
:1009E000848781E1808378948091843880FF11C06E
:1009F00088E798E3E0DCE0918038F0918138168256
:100A0000158280EC8483809186388093853810929B
:100A10008438FFB6F894E0918038F09181381682DE
:100A200083E087838DE890E280879187148680E851
:100A3000858380EC868390918338C0918238809141
:100A40000102992309F4B3C0816080930102C90FA8
:100A5000DD27DD1FCC0FDD1FCC0FDD1FC856D347B0
:100A600061E0888164DD62E0898161DDFFBE85E04F
:100A700092E0809321399093223981EF90E0809326
:100A80001B3990931C3983E092E080931D39909339
:100A90001E398AE791E080931F3990932039209185
:100AA0001139223198F530E0F901EE54F347808195
:100AB0008F3F61F12A523347D901EC91F0E0DF0119
:100AC000AA0FBB1FA050B84C2D913C9121153105A8
:100AD000E9F0482F50E0440F551F240F351F4DEA11
:100AE00050E0D9014D935C939FB7F8949F0145E086
:100AF000220F331F4A95E1F7E0E1E80FE20FF0E043
:100B0000FC5F8081887F816080839FBF80912139D5
:100B1000909122390197F1F780911F3990912039F6
:100B2000892B49F1E0916C38F0916D38B9E3E930E7
:100B3000FB0709F1309739F0A785B0899C9181892D
:100B4000809589238C93809123398E7F80932339DC
:100B500010926B3810926A3889E099E380936C3870
:100B600090936D38E0911839F09119398081909106
:100B70001A39892B808389E099E3A6DC892BD9F384
:100B80006CE07DE888E798E3F7DC6CE27DE888E7D5
:100B900098E3F2DC89E099E397DC892B51F089E056
:100BA00099E3A4DC682F88E798E3B9DBF3CF8E7F65
:100BB0004CCF6CE27DE888E798E3DEDC6FE27DE80D
:100BC00089E099E3D9DC8EDAEB0188EEC82E83E068
:100BD000D82EE12CF12C86DA6C1B7D0B683E73401D
:100BE00070F0C114D104E104F10409F4C4CF81E030
:100BF000C81AD108E108F108C851DC4FECCFC11484
:100C0000D104E104F10439F7B6CF8EEF9CE880936C
:100C1000093990930A3980916C3890916D388950D8
:100C2000994371F4E0911839F091193990818091CC
:100C30001A3980958923808310926C3810926D3810
:100C400008950FD0A59F900DB49F900DA49F800D87
:100C5000911D11240895EE0FFF1F0590F491E02DD2
:100C60000994A29FB001B39FC001A39F700D811D85
:100C70001124911DB29F700D811D1124911D0895A5
:100C800010E0CFE3D0E003C0FE01E5DF2196C034E1
:080C9000D107D1F7F894FFCF62
:100C9800070608090E0F1000101080000000001051
:100CA800101040400000000010000405060705046D
:100CB800030201000001020301020300000000001A
:100CC8008F0106013301DB01640142015601000076
:100CD80000000101010101010202020200000000FE
:100CE80010204080201008040201010204080204B8
:100CF80008010000000008020601940207026402CD
:100D08007602EF01526563656976656420636F6DED
:100D18006D616E642066726F6D20446576696365E7
:100D280020413A000D0A005369676E616C205265D4
:080D3800636569766564210022
:060D40001A380E380638D7
:00000001FF
